:020000040800F2
:10000000D006002049190008F9160008FB16000860
:10001000FF1600080317000807170008000000007B
:100020000000000000000000000000000B170008A6
:100030000D170008000000000F1700081117000836
:1000400063190008631900086319000863190008A0
:100050006319000863190008631900086319000890
:100060006319000863190008631900086319000880
:100070006319000863190008631900086319000870
:100080006319000863190008631900086319000860
:100090006319000863190008631900086319000850
:1000A00063190008B51300086319000863190008F4
:1000B000B71400081D1600080000000063190008AE
:1000C0006319000800000000000000006319000828
:1000D00000000000E116000863190008000000009D
:1000E00063190008631900086319000800F002F89A
:1000F00000F03AF80AA090E8000C82448344AAF188
:100100000107DA4501D100F02FF8AFF2090EBAE885
:100110000F0013F0010F18BFFB1A43F0010318473B
:10012000AC490000CC490000103A24BF78C878C11F
:10013000FAD8520724BF30C830C144BF04680C60ED
:10014000704700000023002400250026103A28BF35
:1001500078C1FBD8520728BF30C148BF0B60704739
:100160001FB51FBD10B510BD03F035FF1146FFF7D9
:10017000F7FF00F009F803F053FF03B4FFF7F2FFB5
:1001800003BC03F05BFF000086B04FF4A06001F0F9
:10019000FBFB03F04BFC00F089F803F0B1FC1220EC
:1001A00003F082FD03F0E2FC47214FF6FF7003F0FD
:1001B00023FE41F61F41632003F079FE4FF4E13046
:1001C00003F0AEFE00F0B2FA00F094FC00F041FF44
:1001D00000F073F95FE00024002003900490059084
:1001E000814600BF0CE02C4800892C490988401A40
:1001F00080B22DF814000A2003F055FC601CC4B234
:10020000052CF0DBBDF80010BDF802201144BDF84C
:1002100004201144BDF806201144BDF808208818B8
:1002200004F041F9074600221D4B03F0B7FF0546D5
:1002300004F00CF91FFA80F91A4880890012ADF811
:100240000C0018488089ADF80E001648C0880012CE
:10025000ADF810001348C088ADF812004FEA29200D
:10026000ADF81400ADF8169000240EE003A830F8A5
:1002700014100D4803F012FB00BF40210A4803F0A0
:100280007BFB0028F9D0601CC4B2062CEEDB3220C8
:1002900003F009FC00BF9EE7640000200800002076
:1002A0000000144048000020003801400020FE49B2
:1002B000087048708870C87008714871C8800881DB
:1002C00048818881C881088248828882C882F7482C
:1002D0008861704710B50021F54803F05DF94FF4CF
:1002E0000041F44802F01FF80021F14803F056F9EC
:1002F0004FF48041EF4802F014F8EB48C188EC4815
:1003000003F04EF94FF40051EA4802F00CF810BD2A
:1003100010B50021E64803F03FF94FF40041E548ED
:1003200001F0FFFF0021E24803F038F94FF480416B
:10033000E04801F0F8FFDC48C188DD4803F030F9FF
:100340004FF40051DB4801F0EEFF10BD10B5002165
:10035000D74803F021F94FF40041D64801F0E1FFFE
:10036000D148C188D24803F019F94FF48041D148EF
:1003700001F0D9FF0021CE4803F012F94FF40051EB
:10038000CC4801F0D0FF10BD10B50021C84803F0E3
:1003900003F94FF40041C74801F0C5FFC248C188C6
:1003A000C34803F0FBF84FF48041C24801F0BBFFA3
:1003B0000021BF4803F0F4F84FF40051BD4801F0AC
:1003C000B0FF10BD10B5B848C188B94803F0E4F8D3
:1003D0004FF40041B74801F0A6FF0021B44803F0F4
:1003E000DDF84FF48041B34801F09DFF0021B04893
:1003F00003F0D6F84FF40051AE4801F092FF10BD63
:1004000010B5A948C188AA4803F0C6F84FF40041C6
:10041000A84801F088FF0021A54803F0BFF84FF479
:100420008041A44801F07DFF0021A14803F0B8F805
:100430004FF400519F4801F076FF10BD10B59A4867
:100440000078E0B198484078062816D2DFE800F03E
:100450000306090C0F12FFF7D3FF0FE0FFF7B2FFFF
:100460000CE0FFF791FF09E0FFF770FF06E0FFF7F0
:100470004FFF03E0FFF72EFF00E000BF1CE08A48BB
:100480004078062816D2DFE800F0120F0C090603A8
:10049000FFF7B6FF0FE0FFF795FF0CE0FFF774FFE3
:1004A00009E0FFF753FF06E0FFF732FF03E0FFF735
:1004B00011FF00E000BF00BF10BD70B54FF496748F
:1004C0006E207949C880FFF79BFF322003F0EBFADA
:1004D00023E0002504E0642003F0C1FA681C85B223
:1004E000A542F8DB1E2094FBF0F0401C201A84B2D9
:1004F000192C05DA01206C4988705020C8800DE065
:1005000069484078401C6849487008464078062889
:1005100001D100204870FFF791FFDAE700BF70BDFE
:1005200070B561480089401C5F4908816248C088F5
:100530006149898888421ADD5B48C078401C5A4965
:10054000C8700846C078082811D10020C8700889F2
:1005500004F0DCF9054654488169284604F0EAF9BC
:10056000044604F0B3F9504908810220887070BD38
:1005700070B54D480089401C4B4908814E48408861
:100580004D49898888421ADD4748C078401C464951
:10059000C8700846C078082811D10020C8700889A2
:1005A00004F0B4F9054640488169284604F0C2F9D0
:1005B000044604F08BF93C4908810220887070BD24
:1005C00070B539480089401C374908813A4800888D
:1005D0003949898888421ADD3348C078401C32493D
:1005E000C8700846C078082811D10020C870088952
:1005F00004F08CF905462C488169284604F09AF9E4
:10060000044604F063F9284908810220887070BD0F
:1006100070B525480089401C234908812648C088B8
:100620002549898888421ADA1F48C078401C1E492B
:10063000C8700846C078082811D10020C870088901
:1006400004F064F9054618488169284604F072F9F7
:10065000044604F03BF9144908810220887070BDFB
:1006600070B511480089401C0F4908811248408824
:1006700011498988884225DA0B48C078401C0A490C
:10068000C8700846C07808281CD10020C8700889A6
:1006900004F03CF9054604488169284604F04AF90B
:1006A000044604F013F909E0480000203333333FD7
:1006B000002C0140000C0140640000201849088112
:1006C0000220887070BD70B515480089401C14491F
:1006D0000881144800881349898888421FDA4FF43A
:1006E0008041114801F01FFE0D48C078401C0C49A4
:1006F000C8700846C078082811D10020C870088941
:1007000004F004F9054606488169284604F012F908
:10071000044604F0DBF8024908810220887070BDAD
:1007200048000020640000200010014010B500BF08
:100730000021FE4802F030FF0021FC4802F02EFFAD
:100740000021FA4802F02CFF4FF40051F84801F064
:10075000EAFD4FF48041F64801F0E5FD4FF4004119
:10076000F34801F0E0FD00BF4FF40041F04801F014
:10077000D8FDF048008945F25551884223DD00BF7D
:100780000021EA4802F008FF0021E84802F006FFD5
:100790000021E64802F004FF4FF40051E44801F064
:1007A000C2FD4FF48041E24801F0BDFD4FF400412D
:1007B000DF4801F0B8FD00BF0120DF49487103F0B8
:1007C000B8F900BFFEE700BF0021D84802F0E4FE00
:1007D0000021D64802F0E2FE0021D44802F0E0FEFB
:1007E0004FF40051D24801F09EFD4FF48041D048B3
:1007F00001F099FD4FF40041CD4801F094FD00BF98
:100800004FF48041CA4801F08CFDCA48008945F286
:100810005551884223DD00BF0021C44802F0BCFED0
:100820000021C24802F0BAFE0021C04802F0B8FE22
:100830004FF40051BE4801F076FD4FF48041BC48B2
:1008400001F071FD4FF40041B94801F06CFD00BFAB
:100850000220B949487103F06CF900BFFEE700BF00
:100860000021B24802F098FE0021B04802F096FE46
:100870000021AE4802F094FE4FF40051AC4801F064
:1008800052FD4FF48041AA4801F04DFD4FF4004164
:10089000A74801F048FD00BF4FF40051A44801F003
:1008A00040FDA448008945F25551884223DD00BF30
:1008B00000219E4802F070FE00219C4802F06EFE6E
:1008C00000219A4802F06CFE4FF40051984801F064
:1008D0002AFD4FF48041964801F025FD4FF4004178
:1008E000934801F020FD00BF03209349487103F0B5
:1008F00020F900BFFEE700BF00218C4802F04CFE4B
:1009000000218A4802F04AFE0021884802F048FE91
:100910004FF40051864801F006FD4FF480418448B1
:1009200001F001FD4FF40041814801F0FCFC00BFE3
:10093000C8217E4802F030FE7E48008945F25551BC
:10094000884223DD00BF0021784802F025FE002107
:10095000764802F023FE0021744802F021FE4FF495
:100960000051734801F0DFFC4FF48041704801F002
:10097000DAFC4FF400416E4801F0D5FC00BF0420C2
:100980006D49487103F0D5F800BFFEE700BF0021B4
:10099000664802F001FE0021644802F0FFFD0021DC
:1009A000624802F0FDFD4FF40051614801F0BBFCCC
:1009B0004FF480415E4801F0B6FC4FF400415C48C2
:1009C00001F0B1FC00BFC821584802F0E7FD5948CA
:1009D000008945F25551884223DD00BF002153486C
:1009E00002F0DAFD0021514802F0D8FD00214F4805
:1009F00002F0D6FD4FF400514D4801F094FC4FF445
:100A000080414B4801F08FFC4FF40041484801F011
:100A10008AFC00BF05204849487103F08AF800BFEE
:100A2000FEE700BF0021414802F0B6FD00213F482B
:100A300002F0B4FD00213D4802F0B2FD4FF4005138
:100A40003B4801F070FC4FF48041394801F06BFCE9
:100A50004FF40041364801F066FC00BFC82133481E
:100A600002F09EFD3348008945F25551884223DD4E
:100A700000BF00212D4802F08FFD00212B4802F01D
:100A80008DFD0021294802F08BFD4FF400512848CC
:100A900001F049FC4FF48041254801F044FC4FF43B
:100AA0000041234801F03FFC00BF06202249487165
:100AB00003F03FF800BFFEE700BF00211B4802F033
:100AC0006BFD0021194802F069FD0021174802F072
:100AD00067FD4FF40051164801F025FC4FF48041AA
:100AE000134801F020FC4FF40041114801F01BFCB9
:100AF00000BF10BD10B5002400BF00210B4802F05C
:100B00004BFD0021094802F049FD0021074802F091
:100B100047FD4FF40051064801F005FC4FF48041B9
:100B2000034801F000FC4FF4004107E0002C0140B5
:100B3000000C01406400002048000020F84801F04B
:100B4000F2FB00BF4FF48041F54801F0EAFB4FF49F
:100B50000051F34801F0E5FB00BF38E0C821F1483F
:100B600002F01AFD322002F07AFFEF48C088002818
:100B700024DA00BF0021EB4802F00EFD0021E94815
:100B800002F00CFD0021E74802F00AFD4FF400518D
:100B9000E34801F0C8FB4FF48041E14801F0C3FB9A
:100BA0004FF40041DE4801F0BEFB00BF0720DF49E3
:100BB0004871012002F0BDFF00BFFEE70021D948C7
:100BC00002F0EAFC962002F04AFF601C84B2B4F501
:100BD0007A7FC3DB00BF0021D24802F0DDFC002198
:100BE000D04802F0DBFC0021CE4802F0D9FC4FF4E3
:100BF0000051CB4801F097FB4FF48041C84801F009
:100C000092FB4FF40041C64801F08DFB00BF00BFCE
:100C10000021C44802F0C0FC0021C24802F0BEFC22
:100C20000021C04802F0BCFC4FF40051BC4801F068
:100C30007AFB4FF48041BA4801F075FB4FF4004154
:100C4000B74801F070FB00BF4FF40041B44801F019
:100C500068FB4FF40051B24801F063FB002438E018
:100C6000C821B04802F09AFC142002F0F8FEAE4809
:100C70004088002824DA00BF0021AA4802F08CFC3A
:100C80000021A84802F08AFC0021A64802F088FC56
:100C90004FF40051A24801F046FB4FF48041A048B8
:100CA00001F041FB4FF400419D4801F03CFB00BFC7
:100CB00008209E494871022002F03BFF00BFFEE77A
:100CC0000021984802F06AFCB42002F0C8FE601CC3
:100CD00084B2B4F57A7FC3DB00BF0021914802F0F3
:100CE0005BFC00218F4802F059FC00218D4802F086
:100CF00057FC4FF400518A4801F015FB4FF4804136
:100D0000874801F010FB4FF40041854801F00BFBD0
:100D100000BF4FF40041824801F003FB4FF48041D3
:100D20007F4801F0FEFA002438E0C8217D4802F037
:100D300037FC1E2002F093FE7B480088002824DA4E
:100D400000BF0021774802F027FC0021754802F01F
:100D500025FC0021734802F023FC4FF40051704839
:100D600001F0E1FA4FF480416D4801F0DCFA4FF4F4
:100D700000416B4801F0D7FA00BF09206B49487168
:100D8000032002F0D6FE00BFFEE70021654802F016
:100D900007FCAA2002F063FE601C84B2B4F57A7FDF
:100DA000C3DB00BF00215F4802F0F6FB00215D4875
:100DB00002F0F4FB00215B4802F0F2FB4FF400511B
:100DC000574801F0B0FA4FF48041554801F0ABFAB2
:100DD0004FF40041524801F0A6FA00BFC821514823
:100DE00002F0DCFBC8214F4802F0DAFB00243BE0B4
:100DF0004FF400414A4801F094FA142002F02FFE0B
:100E00004948C088B0F5805F24DB00BF0021454819
:100E100002F0C2FB0021434802F0C0FB0021414820
:100E200002F0BEFB4FF400513D4801F07CFA4FF454
:100E300080413B4801F077FA4FF40041384801F017
:100E400072FA00BF0A2039494871042002F071FE8D
:100E500000BFFEE74FF40041314801F064FAB420CE
:100E600002F0FDFD601C84B2B4F57A7FC0DB00BFE8
:100E700000212C4802F090FB00212A4802F08EFB52
:100E80000021284802F08CFB4FF40051244801F067
:100E90004AFA4FF48041224801F045FA4FF40041EC
:100EA0001F4801F040FA00BFC8211E4802F074FB41
:100EB000C8211C4802F074FB002443E04FF4804139
:100EC000174801F02EFA142002F0C9FD1648408898
:100ED000B0F5805F2CDB00BF0021124802F05CFB04
:100EE0000021104802F05AFB00210E4802F058FB86
:100EF0004FF400510A4801F016FA4FF480410848B7
:100F000001F011FA4FF40041054801F00CFA00BF5E
:100F10000B2006494871052002F00BFE00BFFEE7DA
:100F2000000C0140002C014064000020480000201B
:100F30004FF48041FE4801F0F6F9B42002F08FFD35
:100F4000601C84B2B4F57A7FB8DB00BF0021F94899
:100F500002F022FB0021F74802F020FB0021F548B7
:100F600002F01EFB4FF40051F14801F0DCF94FF4A0
:100F70008041EF4801F0D7F94FF40041EC4801F00F
:100F8000D2F900BFC821EB4802F006FBC821E948AE
:100F900002F004FB00243BE04FF40051E44801F070
:100FA000C0F9142002F05BFDE3480088B0F5805FD3
:100FB00024DB00BF0021DF4802F0EEFA0021DD480B
:100FC00002F0ECFA0021DB4802F0EAFA4FF400519B
:100FD000D74801F0A8F94FF48041D54801F0A3F9B2
:100FE0004FF40041D24801F09EF900BF0C20D349D4
:100FF0004871062002F09DFD00BFFEE74FF400514E
:10100000CB4801F090F9B42002F029FD601C84B2B5
:10101000B4F57A7FC0DB00BF0021C64802F0BCFAFD
:101020000021C44802F0BAFA0021C24802F0B8FA1E
:101030004FF40051BE4801F076F94FF48041BC48AE
:1010400001F071F94FF40041B94801F06CF900BFAB
:1010500010BD2DE9F04393B00024A14600BF00214C
:10106000B44802F099FA0021B24802F097FA002140
:10107000B04802F095FA4FF40051AD4801F053F931
:101080004FF48041AA4801F04EF94FF40041A848BE
:1010900001F049F900BF642002F005FD00BF22E025
:1010A000A548C08810A921F81400A34840880DA9BC
:1010B00021F81400A04800880AA921F814009E48CD
:1010C000808807A921F814009B48008904A921F809
:1010D00014009948408901A921F814000A2002F05F
:1010E000E2FC601CC4B2052CDADBBDF84010BDF890
:1010F00042201144BDF844201144BDF8462011445B
:10110000BDF84820881803F0CEF9074600228C4B22
:1011100003F044F8054603F099F98A490880BDF8C0
:101120003410BDF836201144BDF838201144BDF804
:101130003A201144BDF83C20881803F0B4F9074662
:1011400000227F4B03F02AF8054603F07FF97E4921
:101150000880BDF82810BDF82A201144BDF82C20C5
:101160001144BDF82E201144BDF83020881803F03A
:101170009AF907460022724B03F010F8054603F077
:1011800065F972490880BDF81C10BDF81E20114495
:10119000BDF820201144BDF822201144BDF82420C0
:1011A000881803F080F907460022654B02F0F6FF2D
:1011B000054603F04BF966490880BDF81010BDF8EC
:1011C00012201144BDF814201144BDF8162011441A
:1011D000BDF81820881803F066F905460022584B20
:1011E00002F0DCFF074603F031F95A490880BDF8E8
:1011F0000410BDF806201144BDF808201144BDF8C4
:101200000A201144BDF80C20881803F04CF905465B
:1012100000224B4B02F0C2FF074603F017F91FFAFA
:1012200080F940F26760814524DA00BF002141481F
:1012300002F0B2F900213F4802F0B0F900213D4828
:1012400002F0AEF94FF40051394801F06CF84FF458
:101250008041374801F067F84FF40041344801F00D
:1012600062F800BF0E2035494871042002F061FC8D
:1012700000BFFEE7B9F5CD6F0DDB40F6EB00814511
:1012800009DA01202D49087140F63B00888240F2BE
:101290006760C88285E040F6EB0081450DDD40F6D1
:1012A0008840814509DA02202449087140F6E4307B
:1012B000888240F60F20C88273E040F6884081455E
:1012C0000DDD40F68C70814509DA03201B49087159
:1012D00040F65940888240F68C70C88261E040F642
:1012E0008C70814538DD00BF0021124802F054F9AE
:1012F0000021104802F052F900210E4802F050F986
:101300004FF400510A4801F00EF84FF480410848AC
:1013100001F009F84FF40041054801F004F800BF5E
:101320000D2006494871032002F003FC00BFFEE7D0
:10133000000C0140002C0140640000204800002007
:1013400000001440000000200200002004000020E3
:10135000060000200800002000BF0021124802F013
:101360001BF90021104802F019F900210E4802F083
:1013700017F94FF400510D4800F0D5FF4FF48041AC
:101380000A4800F0D0FF4FF40041084800F0CBFFBE
:1013900000BF1220064948710A2002F0CAFB00BFB4
:1013A000FEE713B0BDE8F083002C0140000C0140C3
:1013B0004800002010B50121D64802F01EF900288F
:1013C00078D00121D34802F029F9D3488078012848
:1013D00040D18103D14800F0A4FFCF480078E0B1AC
:1013E000CD484078062816D2DFE800F00306090C45
:1013F0000F12FFF768F90FE0FFF7BAF80CE0FFF7FC
:1014000007F909E0FFF7DCF806E0FFF729F903E048
:10141000FFF786F800E000BF1CE0BF4840780628D0
:1014200016D2DFE800F0120F0C090603FFF7C8F828
:101430000FE0FFF715F90CE0FFF772F809E0FFF78E
:1014400042F906E0FFF794F803E0FFF7E1F800E067
:1014500000BF00BFB048807802282BD14103AF48BD
:1014600000F061FFAC480089401EAB490881084686
:101470000089F8B908464078401C48700846407812
:10148000062812D1A6480078401CA54908700846D5
:101490000078072806D1002008709F484089401C2A
:1014A0009D49488100209C494870FEF7C7FF0120F4
:1014B0009949887010BD10B50421080702F09DF805
:1014C000002874D097480078012871D100209549F0
:1014D00008704FF0804002F074F893490880084685
:1014E0000088B0F5707F03DA50209049088010E042
:1014F0008D48008840F63401884204DD4FF4FA60DC
:101500008A49088005E088480088A0F5617087490D
:10151000088086480088B0F5FA7F03DD4FF4FA7042
:101520008249088082480088012804D17F480088C9
:101530007949C88002E001207E4908807648C08849
:10154000782803DC7C48744988614DE07248C08883
:10155000782807DD7048C088822803DC77486E4908
:10156000886141E06C48C088822808DD6A48C088EC
:101570008C2804DC4FF07C506749886134E0664871
:10158000C0888C2807DD6448C088962803DC6C4836
:101590006149886128E06048C088962809DD5E4876
:1015A000C088A02805DC67485B4988611CE030E002
:1015B00020E05948C088A02807DD5748C088AA28DD
:1015C00003DC6048544988610EE05348C088AA286B
:1015D00007DD5148C088C82803DC5B484E49886154
:1015E00002E059484C49886100214FF0804001F0E9
:1015F000FFFE0EE001204B49087000204A49088098
:1016000000214FF0804001F0C3FF0221480701F0A4
:10161000EFFE0521880702F001F810BD2DE9FE4F0D
:1016200000200290019000900121484801F0E5FF60
:10163000002853D00121454801F0F0FF44480078CC
:10164000401C4349087008460078C82830D1002063
:1016500008703148808902902F484089C0EB001003
:101660004FF6FF7101EA40002B49888100BF0298C4
:1016700002F030FF0646374A374B02F03FFF044680
:101680000D462549888902F025FF0646314A921EFB
:10169000324B02F033FF804622462B4602F0D6FC46
:1016A000824602F0D3FE1C49888100BF0020488199
:1016B00020480088012807D100201E4908802848BA
:1016C0000078401C2649087025480078FF2805D17D
:1016D000002023490870012015490880BDE8FE8FCD
:1016E00010B540F225511F4802F05CF918B12021D5
:1016F0001C4802F04EF910BD704700BFFEE700BF66
:10170000FEE700BFFEE700BFFEE770477047704787
:1017100070470000002C01404800002000100140EC
:10172000140000200A0000200C0000200E00002001
:1017300010000020120000203333333F9A99193FE4
:10174000CDCCCC3E9A99993ECDCC4C3E0004004085
:10175000150000209A9999999999E93F9999C93F5B
:1017600016000020003801400CB5002001900090C8
:101770006C48006840F480306A49086000BF6948DE
:10178000006800F4003000900198401C019000981F
:1017900018B90198B0F5A06FF1D16248006800F463
:1017A000003010B10120009001E00020009000986E
:1017B000012843D15C48006840F010005A49086095
:1017C0000846006820F0030008600846006840F002
:1017D0000200086053484068524948600846406823
:1017E00048600846406840F48060486008464068A9
:1017F00020F47C1048600846406840F4E8104860D7
:101800000846006840F08070086000BF45480068E6
:1018100000F000700028F9D04248406820F0030032
:10182000404948600846406840F00200486000BFF8
:101830003C48406800F00C000828F9D10CBD10B5F8
:10184000FFF792FF10BD10B53648006840F0010068
:1018500034490860084640683449084031494860C6
:1018600008460068324908402E490860084600686A
:1018700020F4802008600846406820F4FE0048609C
:101880004FF41F008860FFF7DAFF4FF0006029492E
:10189000086010BD10B5002100200022214B5B68BC
:1018A00003F00C0121B1042906D0082928D107E052
:1018B000214B224C236027E01F4B204C236023E068
:1018C000184B5B6803F47010164B5B6803F48032AE
:1018D000022303EB904022B9194B4343174C23607A
:1018E0000DE0104B5B6803F4003323B1144B43430A
:1018F000124C236003E0104B4343104C236003E081
:101900000D4B0E4C236000BF00BF064B5B68C3F35A
:1019100003130C4CE15C094B1B68CB40074C236064
:1019200010BD000000100240002002400000FFF83F
:10193000FFFFF6FE08ED00E000127A001C00002018
:1019400000093D0020000020094880470948004761
:10195000FEE7FEE7FEE7FEE7FEE7FEE7FEE7FEE75F
:10196000FEE7FEE704480549054A064B70470000BC
:1019700047180008ED000008D0000020D006002025
:10198000D0020020D002002031490143314A1160C9
:10199000704770B5002100230F22C47804B32D4C8A
:1019A000246804F4E064C4F5E064210AC1F104038E
:1019B000CA40447804FA03F18478144021430901B1
:1019C000254C0678A155047804F01F050124AC408D
:1019D00005786D11AD0005F1E025C5F8004109E07D
:1019E000047804F01F050124AC401C4D06787611E4
:1019F00045F8264070BD1A4A0A400243154B1B1F8A
:101A00001A60704739B1134A121D12680243114B14
:101A10001B1D1A6006E00F4A121D126882430D4B0F
:101A20001B1D1A607047042808D14FF0E021096996
:101A300041F004014FF0E022116107E04FF0E02196
:101A4000096921F004014FF0E022116170470000A4
:101A50000000FA050CED00E000E400E080E100E0A9
:101A600080FFFF1F10B50446FA48844208D10121C7
:101A7000401500F07FFE0021601500F07BFE17E0AE
:101A8000F548844208D10121001500F073FE0021C1
:101A9000201500F06FFE0BE0F048844208D10121D0
:101AA000C80300F067FE00214FF4004000F062FE22
:101AB00010BD30B50246002000235068E84C20409D
:101AC0000D790C6844EA0524204350609068E54C89
:101AD0002040D1E902542C434D7944EA4504204387
:101AE0009060D06A20F470000C7C641EE4B2234342
:101AF00040EA0350D06230BD0021016001714171A4
:101B00008160C16001210174704721B1826842F097
:101B10000102826003E0826822F001028260704765
:101B200021B1826842F48072826003E0826822F40C
:101B300080728260704710B50023CBB21AB144683E
:101B40001C43446002E044689C43446010BD8168CB
:101B500041F0080181607047014600208A6802F068
:101B600008020AB1012000E000207047816841F0BE
:101B7000040181607047014600208A6802F0040277
:101B80000AB1012000E00020704721B1826842F4D0
:101B9000A002826003E0826822F4A00282607047A3
:101BA000014600208A6802F480020AB1012000E0A8
:101BB0000020704710B50A4600210023416821F437
:101BC0006041531E41EA4331416010BD21B142687A
:101BD00042F40062426003E0426822F40062426024
:101BE0007047F0B504460D4600200021092D11DD97
:101BF000E068A5F10A0606EB4607072606FA07F194
:101C00008843A5F10A0606EB460603FA06F10843E7
:101C1000E0600CE0206905EB4507072606FA07F1AE
:101C2000884305EB450603FA06F108432061072ABD
:101C30000FDA606B561E06EB86071F2606FA07F1C1
:101C40008843561E06EB860605FA06F108436063D4
:101C500022E00D2A0FDA206BD61F06EB86071F261F
:101C600006FA07F18843D61F06EB860605FA06F149
:101C70000843206310E0E06AA2F10D0606EB860738
:101C80001F2606FA07F18843A2F10D0606EB860629
:101C900005FA06F10843E062F0BD21B1826842F422
:101CA0008012826003E0826822F4801282607047B2
:101CB0000146C86C80B2704766484C300068704777
:101CC00021B1426842F48062426003E0426822F43B
:101CD00080624260704721B1426842F480524260A3
:101CE00003E0426822F48052426070470A460021B5
:101CF000816821F4E04111438160704721B182681D
:101D000042F40042826003E0826822F40042826072
:101D1000704721B1826842F40212826003E0826857
:101D200022F4021282607047014600208A6802F4A1
:101D300000120AB1012000E000207047F0B504460F
:101D40001546002000220026092911DDE068A1F1D6
:101D50000A0707EB470C072707FA0CF29043A1F19B
:101D60000A0707EB470703FA07F21043E0600CE0AD
:101D7000206901EB410C072707FA0CF2904301EBB5
:101D8000410703FA07F210432061A06BC0F301562C
:101D9000EF1C06F1010CA7EB0C0707EB870C1F27C4
:101DA00007FA0CF29043EF1C06F1010CA7EB0C07AD
:101DB00007EB870701FA07F21043A063F0BD10B5E7
:101DC0000A4600210023816B21F44011531E41EA91
:101DD0000351816310BD08B5002300930090009B60
:101DE0000B440093009B1A6008BD08B50246002012
:101DF0000090009201F12800009B18440090009888
:101E0000006880B208BD0A4600214168164B19409F
:101E10001143416070474162826270470A46002167
:101E2000416821F01F0111434160704740B10949E9
:101E30000831096841F40001064A0832116007E0E0
:101E400004490831096821F40001024A083211608E
:101E5000704700000024014000280140003C014080
:101E6000FFFEF0FFFDF7F1FFFFFD3FFF0246002000
:101E700013680B400BB1012000E000207047CA43FB
:101E80000260704770B502460020002300240B1248
:101E90005568CEB205EA060415681D4015B10CB1AF
:101EA000012000E0002070BD00220A12D34303602D
:101EB0007047000001684FF6FE721140016000217A
:101EC000016041608160C1608D49884208D18C49C0
:101ED0000839496841F00F01894A083A51608AE09F
:101EE00087491431884208D185490839496841F049
:101EF000F001834A083A51607DE0814928318842E7
:101F000008D17F490839496841F470617C4A083A30
:101F1000516070E07A493C31884208D178490839EB
:101F2000496841F47041764A083A516063E0744967
:101F30005031884208D172490839496841F470210A
:101F40006F4A083A516056E06D496431884208D1C1
:101F50006B490839496841F47001694A083A51608F
:101F600049E067497831884208D1654908394968AC
:101F700041F07061624A083A51603CE06149884230
:101F800006D1011F096841F00F01021F116032E004
:101F90005C491431884208D15A49091F096841F047
:101FA000F001584A121F116025E056492831884235
:101FB00008D15449091F096841F47061514A121F40
:101FC000116018E04F493C31884208D14D49091F42
:101FD000096841F470414B4A121F11600BE04949F6
:101FE0005031884207D14749091F096841F47021DF
:101FF000444A121F1160704710B50022026847F66C
:10200000F0739A430C6A8B6823430C6923434C6931
:1020100023438C692343CC6923434C6A23438C6A52
:1020200023431A430260CB6843600B6883604B68AC
:10203000C36010BD0021016041608160C160016129
:1020400041618161C161016241628162704721B178
:10205000026842F00102026004E002684FF6FE737B
:102060001A40026070471AB103680B43036002E034
:1020700003688B43036070474160704701464868BE
:1020800080B2704701460020002201F080531BB14E
:102090001C4B083B1A6802E0194B083B1A6802EA1D
:1020A00001030BB1012000E00020704700F08051D7
:1020B00019B11449091F086002E011490839486044
:1020C000704701460020002201F080531BB10D4BE8
:1020D000083B1A6802E00A4B083B1A6802EA01034F
:1020E0000BB1012000E00020704700F0805119B1D1
:1020F0000449091F086002E0014908394860704737
:10210000080002400804024010B50446CC4884424E
:1021100008D10121042000F02DFB0021042000F053
:1021200029FB46E0C748844208D10121082000F07D
:1021300021FB0021082000F01DFB3AE0C248844248
:1021400008D10121102000F015FB0021102000F023
:1021500011FB2EE0BD48844208D10121202000F06F
:1021600009FB0021202000F005FB22E0B848844252
:1021700008D10121402000F0FDFA0021402000F0AC
:10218000F9FA16E0B348844208D10121802000F01A
:10219000F1FA0021802000F0EDFA0AE0AE48844216
:1021A00007D10121801500F0E5FA0021A01500F00B
:1021B000E1FA10BD10B50121084600F0DBFA00215C
:1021C000012000F0D7FA10BD2DE9F04102460025AC
:1021D0000026002000230024002791F803C00CF003
:1021E0000F0591F803C00CF0100CBCF1000F03D0E8
:1021F00091F802C04CEA050591F800C0BCF1000F4F
:1022000031D0146800202BE04FF0010C0CFA00F3E1
:10221000B1F800C00CEA03069E4220D183004FF0C3
:102220000F0C0CFA03F7BC4305FA03FC4CEA040458
:1022300091F803C0BCF1280F06D14FF0010C0CFA45
:1022400000FCC2F814C00AE091F803C0BCF1480FCA
:1022500005D14FF0010C0CFA00FCC2F810C0401C74
:102260000828D1D31460B1F800C0BCF1FF0F34DDF1
:10227000546800202EE000F1080C4FF0010808FA25
:102280000CF3B1F800C00CEA03069E4221D1830092
:102290004FF00F0C0CFA03F7BC4305FA03FC4CEAB1
:1022A000040491F803C0BCF1280F05D100F1080C1B
:1022B00008FA0CF8C2F8148091F803C0BCF1480F7A
:1022C00007D100F1080C4FF0010808FA0CF8C2F829
:1022D0001080401C0828CED35460BDE8F0814FF632
:1022E000FF710180022181700421C1707047024694
:1022F000002093680B400BB1012000E000207047E4
:102300000146886880B2704702460020D3680B40BF
:102310000BB1012000E0002070470146C86880B280
:10232000704701617047416170470AB1016100E087
:1023300041617047C16070474FF480320A43826147
:102340008161826182698269704702460020434B45
:1023500018684FF68073184040EA021008433F4B5C
:10236000186070473E49C8617047F0B50A460023BF
:1023700000240021002500F00046B6F1004F02D1F4
:10238000364EF16901E0354E7168C0F3034583B202
:1023900000F44016B6F5401F08D121F070612F4EB1
:1023A000766826F070662D4F7E6012E000F480168D
:1023B000B6F5801F06D1032606FA05F4A14341F0C5
:1023C000706106E0460D360103FA06F6B14341F0AE
:1023D000706122B1460D360103FA06F6314300F072
:1023E0000046B6F1004F02D11C4EF16101E01B4ED8
:1023F0007160F0BD30B500228B071C0F0F2303FA6C
:1024000004F2164B08338C1053F824309343134CCA
:1024100008348D1044F8253023468C1053F82430AE
:102420008C07240F00FA04F423430C4C08348D105D
:1024300044F8253030BD0A49DC310860704700009F
:1024400000080140000C0140001001400014014050
:1024500000180140001C0140002001400000014024
:1024600000002042DF48006840F00100DD490860BC
:1024700008464068DC490840DA4948600846006878
:10248000DA490840D74908600846006820F48020EF
:1024900008600846406820F4FE0048604FF41F00C2
:1024A00088607047CF49096821F48031CD4A1160B6
:1024B0001146096821F480211160B0F5803F03D0F6
:1024C000B0F5802F0ED106E0C649096841F480318D
:1024D000C44A116007E0C349096841F4A021C14A18
:1024E000116000E000BF00BF704710B50146002238
:1024F000002300204A11012A02D1BA4C236806E0C9
:10250000022A02D1B74C236A01E0B64C636A01F09B
:102510001F02012494401C400CB1012000E0002067
:1025200010BD38B5002000900024002500BF3120E8
:10253000FFF7DBFF05460098401C00900098B0F5BF
:10254000A06F01D0002DF2D03120FFF7CEFF08B1EF
:10255000012400E00024204638BD01460020A14AA5
:10256000106820F0F80040EAC10010607047A049F0
:1025700008607047024600209A4B586820F47C108F
:1025800042EA01031843974B586070479849086620
:10259000704701460020934A506820F0030008432A
:1025A000506070478F48406800F00C00704701464B
:1025B00000208C4A506820F0F000084350607047BB
:1025C00001460020874A506820F4E06008435060CC
:1025D000704701460020834A506820F4605040EA6A
:1025E000C1005060704729B17E4A527A02437D4B48
:1025F0005A7204E07B4A527A82437A4B5A7270478D
:102600007B49D8310860704701460020754A506800
:1026100020F440400843506070470021714A203246
:102620001170704A82F82010012802D004280AD1C3
:1026300004E001216B4A2032117005E00521694A4E
:102640002032117000E000BF00BF70476949086088
:1026500070476449096A0143624A116270476549DB
:1026600044390860704730B500210022002400235F
:102670005C4D6D6805F00C0121B1042905D00829D5
:1026800023D105E05C4D056022E05B4D05601FE055
:10269000544D6D6805F47012524D6D6805F4803428
:1026A000022505EB92421CB9544D554305600BE0E1
:1026B0004C4D6D6805F400351DB1504D5543056016
:1026C00002E04D4D5543056002E04B4D056000BFF3
:1026D00000BF444D6D6805F0F0010909484D6B5C81
:1026E0000568DD4045603F4D6D6805F4E061090A0D
:1026F000434D6B5C4568DD4085603A4D6D6805F47F
:102700006051C90A3E4D6B5C4568DD40C560354D82
:102710006D6805F44041890B3A4D6B5CC568B5FBAB
:10272000F3F5056130BD29B12E4A526902432D4BA4
:102730005A6104E02B4A526982432A4B5A6170471E
:1027400029B1284A92690243264B9A6104E0254A3E
:1027500092698243234B9A61704729B1214AD26919
:102760000243204BDA6104E01E4AD26982431D4BCA
:10277000DA61704729B11B4AD2680243194BDA600B
:1027800004E0184AD2688243164BDA60704729B1D8
:10279000144A12690243134B1A6104E0114A126988
:1027A0008243104B1A6170471249403908607047E4
:1027B0000F49C86470470B49C87170470948406A9F
:1027C00040F0807007494862704701460020054A82
:1027D00092680A400AB1012000E0002070470149D8
:1027E00088727047001002400000FFF8FFFFF6FEFD
:1027F000000042428004424200127A0000093D007B
:10280000300000204000002010B50446FE488442FD
:1028100008D10121C014FFF7ADFF0021E014FFF73C
:10282000A9FFC4E0B4F1804F08D101210846FFF7A9
:10283000AEFF00210120FFF7AAFFB8E0F348844271
:1028400008D101210220FFF7A2FF00210220FFF79B
:102850009EFFACE0EE48844208D101210420FFF73E
:1028600096FF00210420FFF792FFA0E0E948844290
:1028700008D101210820FFF78AFF00210820FFF777
:1028800086FF94E0E448844208D101211020FFF73C
:102890007EFF00211020FFF77AFF88E0DF488442A6
:1028A00008D101212020FFF772FF00212020FFF72F
:1028B0006EFF7CE0DA48844208D101214014FFF722
:1028C00059FF00216014FFF755FF70E0D54884429E
:1028D00009D10121C804FFF74DFF00214FF400206A
:1028E000FFF748FF63E0D048844209D10121080581
:1028F000FFF740FF00214FF48010FFF73BFF56E049
:10290000CA48844209D101214805FFF733FF00215D
:102910004FF40010FFF72EFF49E0C548844208D16C
:1029200001214020FFF733FF00214020FFF72FFF58
:102930003DE0C048844208D101218020FFF727FFF5
:1029400000218020FFF723FF31E0BB48844208D1FB
:1029500001218015FFF71BFF0021A015FFF717FFCE
:1029600025E0B648844209D101210804FFF702FF9F
:1029700000214FF48030FFF7FDFE18E0B04884429C
:1029800009D101214804FFF7F5FE00214FF4003082
:10299000FFF7F0FE0BE0AB48844208D10121880428
:1029A000FFF7E8FE00214FF48020FFF7E3FE10BDA3
:1029B00000220288944B98420ED0994B98420BD03B
:1029C000B0F1804F08D0914B984205D0904B98427F
:1029D00002D0904B984204D14FF68F731A404B8827
:1029E0001A438D4B984207D08C4B984204D04FF637
:1029F000FF431A40CB881A4302808B8883850B885B
:102A00000385814B98420BD0854B984208D08B4B65
:102A1000984205D08A4B984202D08A4B984201D105
:102A20000B7A038601238382704770B5002400224D
:102A30000023058C4FF6FE7635400584028C838892
:102A4000048B4FF68F752C40B51E2C400D882C43FF
:102A5000751E2A400D892A434D882A436A4DA84293
:102A60000BD06F4DA84208D0744DA84205D0744DCC
:102A7000A84202D0734DA84213D14FF6F7752A40F1
:102A80004D892A434FF6FB752A408D882A434FF61D
:102A9000FF652B404FF6FF552B408D892B43CD8989
:102AA0002B4383800483CD888586028470BD70B5F6
:102AB000002400220023058C4FF6EF763540058474
:102AC000028C8388048B48F6FF752C404FF6FF4537
:102AD0002C400D884FF6FF7606EA05252C434FF66D
:102AE000DF752A400D8906EA05152A434D8806EA56
:102AF00005152A43444DA84202D0494DA8421DD194
:102B00004FF67F752A404D894FF6FF7606EA051588
:102B10002A434FF6BF752A408D8806EA05152A43D9
:102B20004FF6FF352B404FF2FF752B408D8906EA9B
:102B300085052B43CD8906EA85052B4383800483D5
:102B4000CD880587028470BD70B500240022002363
:102B5000058C4FF6FF6635400584028C8388848B94
:102B60004FF68F752C404FF6FC752C400D882C438A
:102B70004FF6FF552A400D894FF6FF7606EA0525E8
:102B80002A434D8806EA05252A431F4DA84202D054
:102B9000234DA8421DD14FF2FF752A404D894FF6B3
:102BA000FF7606EA05252A434FF6FF352A408D8831
:102BB00006EA05252A434EF6FF752B404DF6FF75B4
:102BC0002B408D8906EA05152B43CD8906EA0515AC
:102BD0002B4383808483CD888587028470BD70B544
:102BE000002200230024058C4EF6FF763540058434
:102BF000038C8488828B48F6FF752A404FF6FF4588
:102C00002A400D8820E00000002C01400004004014
:102C100000080040000C004000100040001400407C
:102C200000340140004C014000500140005401407C
:102C300000180040001C00400020004000400140FF
:102C400000440140004801404FF6FF7606EA0525A2
:102C50002A434DF6FF752B400D8906EA05352B43B7
:102C60004D8806EA05352B43FA4DA84202D0FA4DAD
:102C7000A84208D14BF6FF752C408D894FF6FF76A0
:102C800006EA85152C4384808283CD88A0F84050C5
:102C9000038470BD828B4FF2FF331A408283828B94
:102CA0004FF6FF7303EA01231A4382837047F0B59E
:102CB0000C461546002200210026078C4EF6FF7CAC
:102CC00007EA0C070784828B018C4FF6FF7707EA2F
:102CD000043640F6FF473A404FF6FF7707EA0527EC
:102CE0003A434FF6FF7707EA03373A43D94FB842E2
:102CF0000ED0D94FB8420BD0B0F1804F08D0D74F8B
:102D0000B84205D0D64FB84202D0D64FB84206D10D
:102D10004DF6FF77394046F48057394305E047F6D2
:102D2000FF57394044F48057394382830184F0BD12
:102D3000828B4FF6F3731A408283828B0A4382831D
:102D40007047F0B50C461546002200210026078C7E
:102D50004FF6FF6C07EA0C070784828B018C4FF655
:102D6000FF7707EA04264FF60C773A404FF6FF77D5
:102D700007EA03172F433A43B64FB8420ED0B64F77
:102D8000B8420BD0B0F1804F08D0B44FB84205D054
:102D9000B34FB84202D0B34FB84206D14FF6FF57F7
:102DA000394046F48077394305E04FF2FF57394008
:102DB00044F48077394382830184F0BD028B4FF263
:102DC000FF331A400283028B4FF6FF7303EA01239D
:102DD0001A4302837047F0B50C46154600220021C5
:102DE0000026078C4FF6EF7C07EA0C070784028B5E
:102DF000018C4FF6FF7707EA041640F6FF473A408A
:102E00004FF6FF7707EA03373A434FF6FF7707EAB3
:102E100005273A438F4FB8420ED08F4FB8420BD0A0
:102E2000B0F1804F08D08D4FB84205D08C4FB842DA
:102E300002D08C4FB84206D14FF6DF77394046F0CA
:102E40001007394305E04FF65F77394044F010072B
:102E5000394302830184F0BD028B4FF6F3731A40AD
:102E60000283028B0A4302837047F0B50C46154675
:102E700000220021068C4FF6FE773E400684028B2E
:102E8000018C4FF60C7632407E1C06EA03162E4368
:102E90003243704EB0420ED06F4EB0420BD0B0F104
:102EA000804F08D06D4EB04205D06D4EB04202D07A
:102EB0006C4EB04206D14FF6FD76314044F001062B
:102EC000314305E04FF6F576314044F001063143D9
:102ED00002830184F0BD70B505460C465D4885420D
:102EE0000ED05D4885420BD0B5F1804F08D05B48CD
:102EF000854205D05A48854202D05A48854200D1C1
:102F000000E000BF208850B92389A2886188284644
:102F1000FFF7ABFFE1882846FFF79EFF25E02088FA
:102F200004280AD12389A28861882846FFF753FF25
:102F3000E1882846FFF742FF17E0208808280AD1D9
:102F40002389A28861882846FFF7FBFEE18828468E
:102F5000FFF7EEFE09E02389A28861882846FFF783
:102F6000A6FEE1882846FFF795FE70BD2DE9F041E9
:102F700005460C4600260127608808B9022600E0B5
:102F80000026A088012801D1022700E0012720881F
:102F9000A0B92389A28861882846FFF766FFE188E7
:102FA0002846FFF759FF23893A4631462846FFF75E
:102FB00012FFE1882846FFF701FF13E02389A2886A
:102FC00061882846FFF707FFE1882846FFF7F6FEED
:102FD00023893A4631462846FFF747FFE1882846CD
:102FE000FFF73AFFBDE8F0810A884B881A438B88C7
:102FF0001A43CB881A430B891A434B891A438B898E
:103000001A43A0F8442070474FF6FF7181800021D9
:103010000180C180418001727047002101804180A0
:103020008180C180018141818181C18170470021FE
:1030300001804180012181800021C1800181704790
:103040000021018041808180C18001814181818195
:1030500070470000002C0140003401400004004093
:1030600000080040000C004021B1028842F001023B
:10307000028004E002884FF6FE731A400280704717
:1030800031B1B0F8442042F40042A0F8442005E0F9
:10309000B0F84420C2F30E02A0F8442070471AB1E1
:1030A00083890B43838102E083898B43838170474B
:1030B0008182704741EA0203A0F8483070471AB194
:1030C00083890B43838102E083898B43838170472B
:1030D00001894FF6F8721140018170470A460021BC
:1030E00001894FF68F73194011430181704730B544
:1030F00004460D4629462046FFF7F0FF208940F0A0
:103100000700208130BD2DE9F04104460D461646EA
:103110001F46602D06D13B46012231462046FFF76F
:103120005AFE05E03B46012231462046FFF79DFE50
:1031300029462046FFF7D2FF208940F00700208172
:10314000BDE8F08130B50C4600210189C9B24FF6C7
:10315000FF7505EA0325154325432943018130BD49
:103160002DE9F04105460E46174698460024434691
:103170003A4631462846FFF7E5FF2C894FF6F870AE
:10318000044044F007044FF68F70044044F070048C
:103190002C81BDE8F081F0B504460D4616461F4669
:1031A0003B46324629462046FFF7CCFF208940F4B3
:1031B00080402081F0BD0185828270470A4600214F
:1031C00001884FF68F731940114301807047F0B5A5
:1031D0000C4615461E460021002200230189028B61
:1031E000038C4FF6F877394021434FF6FC473A40BD
:1031F00040F201173A434FF6DD773B404FF6FF7739
:1032000007EA06172F433B43018102830384F0BD85
:103210000A460021018B4FF68F7319401143018339
:1032200070470A460021018B48F6FF7319404FF69C
:10323000FF7303EA02231943018370470A46002102
:10324000818B4FF68F7319401143818370470A4673
:103250000021818B48F6FF7319404FF6FF7303EA94
:10326000022319438183704721B1028842F0800212
:10327000028004E002884FF67F731A400280704794
:1032800021B1828842F00402828004E082884FF6F5
:10329000FB731A408280704721B1828842F0080295
:1032A000828004E082884FF6F7731A40828070476C
:1032B00021B1828842F00102828004E082884FF6C8
:1032C000FE731A40828070470A460021018B4FF638
:1032D000F77319401143018370470A460021018B9F
:1032E0004FF2FF7319404FF6FF7303EA02231943AD
:1032F000018370470A460021818B4FF6F77319400E
:103300001143818370470A460021818B4FF2FF737E
:1033100019404FF6FF7303EA022319438183704774
:103320000A460021018B4FF6FB73194011430183BC
:1033300070470A460021018B4FF6FF3319404FF6C4
:10334000FF7303EA02231943018370470A460021F1
:10335000818B4FF6FB7319401143818370470A46F6
:103360000021818B4FF6FF3319404FF6FF7303EABC
:1033700002231943818370470A460021018B4FF6CF
:103380007F7319401143018370470A460021018B66
:10339000C1F30E014FF6FF7303EA022319430183C1
:1033A00070470A460021818B4FF67F731940114305
:1033B000818370470A460021818BC1F30E014FF6CD
:1033C000FF7303EA02231943818370470A460021F1
:1033D000018C4FF6FD7319401143018470470A4672
:1033E0000021018C4FF6F773194011430184704797
:1033F0000A460021018C4FF6DF7319404FF6FF7328
:1034000003EA02131943018470470A460021018C24
:103410004FF67F7319404FF6FF7303EA0213194307
:10342000018470470A460021018C4FF6FF53194072
:103430004FF6FF7303EA02231943018470470A46DB
:103440000021018C4FF2FF7319404FF6FF7303EA1E
:1034500002231943018470470A460021018C4DF66E
:10346000FF7319404FF6FF7303EA023319430184D7
:10347000704730B5002301248C40A3B2048C9C43D8
:103480000484048C02FA01F5ADB22C43048430BDEF
:1034900030B5002304248C40A3B2048C9C430484E4
:1034A000048C02FA01F5ADB22C43048430BD70B532
:1034B0000346002000241846183001258D40ACB288
:1034C0001D8CA5431D8409B1082909D100EB6100B9
:1034D000056825F0700505600568154305600EE078
:1034E0000D1FC5F34E052844056825F4E045056029
:1034F00005684FF6FF7606EA02263543056070BD83
:1035000021B1028842F00202028004E002884FF6F4
:10351000FD731A400280704721B1028842F0040214
:10352000028004E002884FF6FB731A400280704765
:1035300021B1828842F08002828004E082884FF6C6
:103540007F731A408280704702884FF6F7731A40E3
:10355000028002880A430280704782884FF68F7388
:103560001A40828082880A438280704702894FF61F
:10357000F8731A40028102890A4302817047028966
:103580004FF67F731A40028102890A430281704715
:1035900081847047818570478186704701877047B5
:1035A00081877047A0F84010704702884FF6FF43AC
:1035B0001A40028002880A43028070470146888EC2
:1035C00070470146088F70470146888F7047014653
:1035D000B1F8400070470146888C70470146088D5D
:1035E000704702460020138A0B400BB1012000E017
:1035F00000207047CA430282704730B5024600205F
:1036000000230024158A05EA0103958905EA0104CF
:1036100013B10CB1012000E0002030BDCA4302828A
:103620007047000010B50446FB48844209D10121CF
:103630008803FFF79FF800214FF48040FFF79AF8C6
:1036400032E0F648844209D101214804FFF79FF88F
:1036500000214FF40030FFF79AF825E0F04884424B
:1036600009D101218804FFF792F800214FF480204E
:10367000FFF78DF818E0EB48844209D10121C80416
:10368000FFF785F800214FF40020FFF780F80BE0EA
:10369000E548844208D101210805FFF778F80021A8
:1036A0004FF48010FFF773F810BD2DE9F04786B096
:1036B00005460E460024A24600BFA1460027B08959
:1036C00000B100BF2F462C8A4CF6FF700440F088F2
:1036D00004432C82AC894EF6F3100440B088318943
:1036E0000843718908430443AC81AC8A4FF6FF401C
:1036F0000440B0890443AC8201A8FEF7B4FFC64879
:10370000874202D1DDF810A001E0DDF80CA0A88905
:1037100000F4004040B10AEBCA0000EB0A10316827
:103720004900B0FBF1F807E00AEBCA0000EB0A1011
:1037300031688900B0FBF1F86420B8FBF0F00401B7
:103740002009642101FB1089A88900F4004040B1E0
:10375000322000EBC900B0FBF1F000F00700044399
:1037600008E0322000EB09106421B0FBF1F000F01A
:103770000F0004432C8106B0BDE8F0874FF41651CA
:10378000016000218180C18001810C2141810021E3
:103790008181704710B502460020108A4FF2FF0366
:1037A00018400B884C8823438C882343CC882343C0
:1037B0001843108210BD0021018041808180C180AA
:1037C000704721B1828942F40052828104E08289EB
:1037D0004DF6FF731A4082817047F0B5034600240E
:1037E00000260025002040F66A17B94200D100BF2C
:1037F0001846C1F3421401F01F06012707FA06F527
:10380000012C01D10C3004E0022C01D1103000E079
:1038100014301AB107682F43076002E00768AF430E
:103820000760F0BD1AB1838A0B43838202E0838A6A
:103830008B4383827047028A4FF6F0731A400282EC
:10384000028A0A430282704782894FF2FF731A404C
:10385000828182890A438281704721B1828942F044
:103860000202828104E082894FF6FD731A40828150
:103870007047028A4FF6DF731A400282028A0A43B7
:103880000282704721B1028A42F48042028204E03F
:10389000028A4BF6FF731A4002827047C1F3080296
:1038A0008280704701468888C0F30800704781898C
:1038B00041F0010181817047028BD2B20283028BF9
:1038C00042EA012202837047028B02F47F420283A4
:1038D000028B0A430283704721B1828A42F02002A0
:1038E000828204E0828A4FF6DF731A408282704738
:1038F00021B1828A42F01002828204E0828A4FF66D
:10390000EF731A408282704721B1828A42F0080226
:10391000828204E0828A4FF6F7731A4082827047EF
:1039200021B1828942F40042828103E08289C2F39C
:103930000E028281704721B1828A42F40062828243
:1039400004E0828A4FF2FF731A4082827047828AB3
:103950004FF6FB731A408282828A0A438282704742
:1039600021B1828A42F00202828204E0828A4FF60A
:10397000FD731A408282704702460020B1F5007F35
:1039800000D100BF13880B400BB1012000E00020E4
:10399000704701F40072B2F5007F00D100BFCA4346
:1039A0000280704770B502460024002300250020E5
:1039B00040F66A16B14200D100BFC1F3421501F0D2
:1039C0001F03012606FA03F3012D02D19689334025
:1039D00006E0022D02D1168A334001E0968A334078
:1039E0000C12012606FA04F41688344013B10CB107
:1039F000012000E0002070BD10B50022002340F639
:103A00006A14A14200D100BF0A1201249440A3B25B
:103A1000DC43048010BD0000003801400044004039
:103A200000480040004C00400050004010B56FF0CE
:103A30000400FDF7F8FF2E4800682E49B0FBF1F0B6
:103A40002D4908700846007800EB4001C1EBC0101A
:103A50004FF6FF7101EAC0002849088010BD0146F9
:103A6000254A12784A434FF0E0235A6100229A61B6
:103A70001A46126942F001021A6100BF4FF0E022BB
:103A8000106900F001021AB100F48032002AF5D06A
:103A90004FF0E022126922F001024FF0E0231A6198
:103AA00000229A6170470146144A12884A434FF037
:103AB000E0235A6100229A611A46126942F001021B
:103AC0001A6100BF4FF0E022106900F001021AB144
:103AD00000F48032002AF5D04FF0E022126922F083
:103AE00001024FF0E0231A6100229A617047000042
:103AF0001C00002000127A00440000204600002034
:103B000008B501211020FEF71BFE4FF4C040ADF8B0
:103B1000000003208DF8020010208DF80300694694
:103B20001148FEF751FB4FF400510F48FEF7F9FB27
:103B300008BD70B50446002513E04FF400510A4853
:103B4000FEF7F1FB4FF4FA70FFF7ADFF4FF40051B1
:103B50000548FEF7E6FB4FF4FA70FFF7A4FF681C78
:103B6000C5B2A542E9DB70BD0010014000B591B0BF
:103B700001214FF40170FEF7E3FD01210846FEF735
:103B8000D2FD4FF40040FEF73FFD3F20ADF80000AE
:103B900000208DF8030069463F48FEF715FB3F48BB
:103BA000FDF760FF00200C9001208DF834008DF8A7
:103BB00035004FF460200E9000200F9006208DF805
:103BC00040000CA93548FDF774FF01231A46002177
:103BD0003248FEF706F80123022219462F48FEF765
:103BE00000F80123032202212C48FDF7FAFF0123EC
:103BF000042203212948FDF7F4FF012305220421B3
:103C00002648FDF7EEFF0123062205212348FDF794
:103C1000E8FF01212148FDF778FF01211F48FDF74A
:103C20007FFF1F48FEF746F91C484C3001901D48A5
:103C30000290002003900620049000200590802030
:103C40000690400007908000089020200990000214
:103C50000A9000200B9001A91148FEF7CDF901212F
:103C60000F48FEF7F4F90D48FDF771FF00BF0B4850
:103C7000FDF772FF0028FAD10848FDF777FF00BF73
:103C80000648FDF778FF0028FAD101210348FDF727
:103C90007CFF11B000BD000000080140002401407D
:103CA000080002406400002010B58AB004460121DB
:103CB0000C20FEF745FD0121C802FEF741FD4FF43F
:103CC000E060ADF8040003208DF806001C208DF89C
:103CD000070001A98C48FEF777FA4FF46040ADF871
:103CE000040014208DF8070003208DF8060001A9B8
:103CF0008648FEF769FA8648FEF786FD48F6A0403A
:103D000090FBF4F0401E80B2ADF81C000020ADF82E
:103D100018002020ADF81A000020ADF81E008DF824
:103D2000200006A97A48FEF743FE6020ADF808009F
:103D30000120ADF80A000020ADF80E00ADF810002B
:103D4000ADF8140002A97248FEF76FFE02A9704890
:103D5000FEF7ADFE02A96E48FEF7F6FE08216C489C
:103D6000FFF7B2FA08216A48FFF7B7FA0821684856
:103D7000FFF7C0FA01216648FFF73CFC01216448C7
:103D8000FFF74CFC012211466148FFF788F9192022
:103D90008DF8240000208DF825008DF826000120E4
:103DA0008DF8270009A8FDF7F4FD01215848FFF719
:103DB0005BF901215648FFF763F900BF0021544821
:103DC000FFF7EAFB00215248FFF7E8FB00215048CB
:103DD000FFF7E6FB4FF400514C48FEF7A4FA4FF40E
:103DE00080414A48FEF79FFA4FF400414748FEF7EA
:103DF0009AFA00BF0AB010BD30B589B005460C462E
:103E000001210846FEF7A9FC01210920FEF798FCD4
:103E100001214048FEF7A9FA01213F48FEF7A5FA23
:103E20000820ADF8200028208DF8230008A9374885
:103E3000FEF7CAF9ADF81850ADF814400020ADF8FF
:103E40001A00ADF8160005A94FF08040FEF7B0FD4E
:103E50000420ADF808000020ADF80A000120ADF8FC
:103E60000C000020ADF80E00ADF8100002A94FF0D4
:103E70008040FFF730F81C208DF8040001208DF8F9
:103E800005008DF806008DF8070001A8FDF781FDFB
:103E900005218807FFF7C2FB012205218807FFF7EC
:103EA000FEF801218807FFF7DFF809B030BD7FB5C4
:103EB00005460C4601210220FEF74FFCADF80850E4
:103EC000ADF804400020ADF80600ADF80A0001A9E5
:103ED0001248FEF76DFD012211461048FFF7DFF88A
:103EE0001D208DF8000002208DF8010001208DF8C2
:103EF00002008DF803006846FDF74BFD01210748DD
:103F0000FFF7B2F87FBD000000080140000C01403F
:103F1000002C0140000230000003180000040040A3
:103F200010B586B00446012144F20900FEF708FCF2
:103F300001210420FEF719FA8020ADF814000420B6
:103F40008DF8170005A92048FEF73EF94020ADF88E
:103F5000140003208DF8160018208DF8170005A90D
:103F60001948FEF731F901940020ADF80800ADF8CA
:103F70000A00ADF80C00ADF810000C20ADF80E00F2
:103F800001A91248FFF791FB012240F225510F4889
:103F9000FFF723FC002240F227710C48FFF71DFCBD
:103FA00001210A48FFF70DFC25208DF800000320B1
:103FB0008DF801008DF8020001208DF8030068469D
:103FC000FDF7E7FC06B010BD000C014000380140D1
:103FD000704770477047754600F02CF8AE460500F4
:103FE0006946534620F00700854618B020B5FDF716
:103FF000B9FCBDE820404FF000064FF000074FF03D
:1040000000084FF0000B21F00701AC46ACE8C009F6
:10401000ACE8C009ACE8C009ACE8C0098D467047FF
:1040200010B50446AFF300802046BDE81040FCF711
:10403000A4B8000000487047700000200149182013
:10404000ABBEFEE7260002007047000010B591EA03
:10405000030F48BF83F0004300F15683841A71EBCD
:10406000030C05D2121943EB0C03001B61EB0C018E
:10407000DFF824E14FEA1154A4EB135C1EEA430F6E
:1040800018BF9EEA445F73D023EA0E03DCF1200ED2
:1040900021EA045143F4801332D322FA0CFE10EBD0
:1040A0000E0023FA0CFE41EB0E01CCF1200E03FAB8
:1040B0000EFE10EB0E0051F10001B1F5801FCCF1A6
:1040C000200E32D201EB045112FA0EF2BDE810407C
:1040D00058BF7047401C38BF5FEA420218BF7047A4
:1040E000002814BF20F0010041F100014FEA410314
:1040F00013F5001F38BF7047A1F1C04100F0F6BAB8
:10410000012A43EB0302ACF1200CDCF11F0E32BF9D
:104110004FF0000E23FA0CF310EB030041EB0451B7
:10412000B4EB115FD0D0A1EB045101F58011490827
:104130005FEA300001EB04510ED350F1000038BFAC
:1041400012FA0EFE08D1BDE81040C9E7401C38BF86
:104150005FEA4202CAD1C3E7BDE810404FEA41031B
:1041600013F5001F38BF7047A1F1C04100F0BEBA7F
:104170009EEA445F08D011EA5E0FBDE8104004BF1C
:1041800001F0004100207047BDE8104070B500F01C
:104190005FFA00BF64FBBE3E0000E0FF2DE9C041B6
:1041A00030B4DFF8A0C23CEA111418BF3CEA131483
:1041B00000F0EC8081EA03051CEA111444EAD5748E
:1041C00018BF1CEA131500F0C780A4EB05044FF0DC
:1041D000004545EAC12145EAC32341EA505143EA7B
:1041E000525304F17F74994204F500344FEAC02021
:1041F0004FEAC22208BF904200F09C804FEA13654C
:104200000FF24016765D4FEA134506FB05F7C7F13E
:10421000807706FB07F74FEAD737A7FB036876429C
:10422000C8F58038A7FB06CE38BFA8F1010807FB08
:1042300008E64FF0000EA6FB028CE6FB03CEDCF195
:10424000000CCEF1004E38BFAEF1010EA6FB0C58AB
:104250004FF000074FF00005E6FB0E87A1FB08C6F4
:10426000A0FB07CE16EB0E0645F10005E1FB076546
:1042700015F1E04E7EBFA4F580345FEA46066D413D
:1042800016F1800745F100054FEA17274FEA066649
:1042900047EA0567A6F1DE46B6F1805F4FEA1525CD
:1042A0001FD9384624F0010C05EBC471BCF1FE6F38
:1042B00001EB0C1102D8F0BCBDE8008124425CBFC8
:1042C00001F5801E9EEAC47F02D4F0BCBDE80081E7
:1042D000244238D4F0BCA1F1C041BDE8004100F057
:1042E00005BA4FEAD22242EA43524FEAD323A7FB50
:1042F00002864FEAD02040EA415007FB03661EEADF
:104300000E0F4FEAD12105FB026658BFA6EB0056FF
:10431000B6EB00564FEA520E4EEAC37E18EB0E0E75
:1043200056EB530EBDD518EB02085E417F1C55F1CC
:104330000005B6E74FF480154FF000074FF0000678
:104340004FF00008ADE7F0BC4FF0000001F1C041B4
:1043500001F00041BDE8008111EA0C1F0CEA1315C1
:1043600000D00CE013EA0C1F00F025804FF0000095
:10437000F0BC81EA030101F00041BDE80081F0BC1E
:10438000BDE8004181EA030100F0B0B9F0BCBDE82E
:10439000004170B500F05CF9097EFC3E00F007B802
:1043A00081EA03014FF0000001F00041704781EA0B
:1043B000030100F09BB9F0BCBDE800414FF00000E4
:1043C00021497047FFFDFBF9F7F5F4F2F0EEEDEB54
:1043D000E9E8E6E4E3E1E0DEDDDBDAD8D7D5D4D303
:1043E000D1D0CFCDCCCBCAC8C7C6C5C4C2C1C0BF4F
:1043F000BEBDBCBBBAB9B8B7B6B5B4B3B2B1B0AF55
:10440000AEADACABAAA9A8A8A7A6A5A4A3A3A2A138
:10441000A09F9F9E9D9C9C9B9A99999897979695F3
:1044200095949393929191908F8F8E8E8D8C8C8B8F
:104430008B8A898988888787868585848483838217
:10444000828181800000FF070000F87F4FEA11534E
:10445000A3F58063D3F11E03A8BFD3F1200C08DBC2
:104460004FF0004242EAC12252EA505232FA03F0BF
:10447000704709420BD4102BC4BF0020704703F5CE
:10448000787CBCF1FF3F05D04FF0FF3070474FF014
:104490000000704770B500F0DBF800BF499224803F
:1044A00000207047F0E710F0004248BF4042B0FAE9
:1044B00080F310FA03F10AD0C3F11D0303F5806302
:1044C0004FEA415002EB035202EBD12170474FF00B
:1044D00000007047B0FA80F310FA03F10AD0C3F17C
:1044E0001D0303F580634FEA41504FEA035202EB8C
:1044F000D12170474FF0000070470000DFF848C13D
:1045000070B51CEA111E1EBF1CEA13159EEA0C0FA3
:1045100095EA0C0F00F06F8081EA030423EA4C1344
:104520004EEAD47E21EA4C1141F4801143F4801309
:10453000AE44A1FB024CA0FB0365AEF17F7E3619B1
:1045400055EB0C05A1FB034C4CF10003A0FB021C36
:1045500016EB0C06654153F10003094218BF46F003
:10456000010613F4007F0BD14FEA03314FEA053007
:10457000340341EA155140EA16506FF003020AE095
:104580004FEAC3214FEAC520F40241EA555140EAFF
:1045900056506FF0020202EB2E4201EB025585EA03
:1045A000CE710AD05FEA440C18BF24F0004450F1E9
:1045B000000041F1000120EAD47040F2FE7C624527
:1045C00000D270BDA84214BF4FF080444FF0404469
:1045D000002E08BF0024BEF1806FA8BFA1F1C0412A
:1045E000BDE8704080F282804FF0000001F1C041D0
:1045F00001F0004170479EEA0C0F0CEA131518BF3A
:1046000095EA0C0F06D04FF0000081EA030E0EF081
:10461000004170BD00F01CF88900013E00F007B8B1
:1046200000F009B84FEA430C5FEA5C5C08D081EA0D
:10463000030100F05BB84FEA410C5FEA5C5CF6D125
:104640004FF00000014970470000FF070000F87FAD
:104650000EF1020E2EF0030E5EF8046B364205D406
:10466000012A43EB030515F5001F12D8012841EB81
:10467000010C1CF5001F0CD80ED14FEAD17C15F5AA
:10468000001F0CEB4C0C0CF1020C08BF4CEBD37C64
:1046900004E04FF0080C01E04FEAD37C0CEB4C0532
:1046A00026FA05F606F00706B6F1040C06D20EEB64
:1046B000860CBDE870404CF0010C6047DFE80CF060
:1046C000090B02024FF000414FF00000A1F500215C
:1046D00070BD19461046012851EB010418BFD4F5EE
:1046E000001484BF002001F0004170BD0808A0F54F
:1046F00000114FEA3101704710B591EA030F48BF2E
:1047000083F000433FF5AAAC841A71EB030C07D287
:1047100012198CF0004C43EB0C03001B61EB0C01F5
:10472000DFF8A4E14FEA1154A4EB135C1EEA430F37
:1047300018BF9EEA445F00F0B08023EA6E03524245
:1047400021EA0451C3EB6E0338BF5B1EDCF1200E7F
:1047500025D322FA0CFE10EB0E0043FA0CFE41EBBF
:104760000E01CCF1200E03FA0EFE10EB0E0051F1FB
:104770000001CCF1200E29D412FA0EF201EB045103
:10478000BDE8104058BF7047401C1CBFB2F1004F3D
:10479000704700280CBF491C20F00100704712EB45
:1047A000020E43EB030218BF4FF0010E4EEA420225
:1047B000ACF1200CDCF11E0E54D943FA0CFE10EBC8
:1047C0000E0051F1FF31CCF11E0ED5D50EF1010EC8
:1047D00012FA0EFE404141EB010101EB445C5FEA3D
:1047E0005C5C10D910EBDE7001EB045138BFBEF1F8
:1047F000004FBDE8104018BF704700280CBF491C8F
:1048000020F00100704730D24FEAD42C11F500118E
:1048100024F400641BD0B1FA81F20B3AA41AA41E4E
:10482000D2F12003914030FA03F31943904001EB99
:10483000CC71002C01EB0451BDE81040A8BF7047BB
:1048400001F1C0414FF0000001F000417047B0FAA3
:1048500080F310FA03F100D110BDE41A173C4805AB
:10486000C90AE4E701EB045110BD491001EB045102
:10487000BDE810404FEA300002E04FF00001704701
:104880004A0008BF0042F8D0B2F5001F28BF7047A9
:1048900001F000414FF0000070479EEA445F07D0EE
:1048A00011EA5E0FBDE8104004BF002100207047F0
:1048B000BDE8104070B5FFF7CBFE00BF40DFF63E0D
:1048C00083F00041104670470000E0FFC10DD1F1B8
:1048D0009E0206DB4FEA002343F0004323FA02F076
:1048E0007047004207D54FEA4001B1F1FE4F02D2B6
:1048F0004FF00000704710B500F09DF849922480F9
:10490000002070476FEA200070470000B0FA80F383
:1049100010FA03F2C3F19D030AD0D90501EB12206E
:10492000530638BF704700F1010008BF20F00100B6
:10493000704700004FF47F0C1CEAD0121EBF1CEA27
:10494000D11392EA0C0F93EA0C0F00F0478090EA23
:10495000010F48BF42F480724FF0004C4CEA002037
:104960004CEA012102EB0302A0FB0113A2F50002B5
:10497000002918BF43F001035B0028BF4FEA33034F
:1049800042EB22425FEA132C4CEBC2502EBFBCEB31
:10499000436FB2F57C0F70474FEA036CBCF1004FD8
:1049A00008BF20F00100B2F57C0F38BF70470BD56F
:1049B00082F0FF0212F5803FC8BF704700F1C0408F
:1049C000D8BF00F00040704700F5000C5FEA4C0CC7
:1049D00048BF7047B0F1C04000F073B890EA010FD3
:1049E0000CEAD11348BF42F48072624538BF634578
:1049F00004D280EA010000F00040704710B500F0DA
:104A00001AF800BF8900013E00F007B800F009B8AD
:104A10005FEA410C5FEA1C6C08D080EA010000F0FC
:104A200050B85FEA400C5FEA1C6CF6D14FF00040D2
:104A3000A0F5800070470EF1020E2EF0030E5EF816
:104A4000044B244204D44FEA4102B2F17F4F11D803
:104A50004FEA4003B3F17F4F0CD80ED14FEAD07C20
:104A6000B2F17F4F0CEB4C0C0CF1020C08BF4CEB7D
:104A7000D17C04E04FF0080C01E04FEAD17C0CEB54
:104A80004C0324FA03F404F00704B4F1040C06D236
:104A90000EEB840CBDE810404CF0010C6047DFE8E1
:104AA0000CF0070802024FF00040A0F5800010BD96
:104AB0000846420018BFD2F1807288BF00F0004063
:104AC00010BDFF2141EAD050C0057047EC4A0008F4
:104AD000000000204800000028010008344B0008B6
:104AE0004800002088060000440100080000000083
:104AF00000000000000000000000000000000000B6
:104B0000000000000000000000A24A0400000000B5
:104B1000000000000102030406070809000000006D
:104B2000010203040102030406070809020406083F
:044B30000000000081
:04000005080000ED02
:00000001FF
